:020000040000fa
:080000000002040000000000f2
:020000040000fa
:04000800f2070000fb
:020000040000fa
:04000c00f2070000f7
:020000040000fa
:04001000f2070000f3
:020000040000fa
:04001400f2070000ef
:020000040000fa
:04001800f2070000eb
:020000040000fa
:04001c00f2070000e7
:020000040000fa
:04002000f2070000e3
:020000040000fa
:04002400f2070000df
:020000040000fa
:04002800f2070000db
:020000040000fa
:04002c00f2070000d7
:020000040000fa
:04003000f2070000d3
:020000040000fa
:04003400280300009d
:020000040000fa
:04003800f2070000cb
:020000040000fa
:04003c00f2070000c7
:020000040000fa
:04004000f2070000c3
:020000040000fa
:040044008e04000026
:020000040000fa
:04004800200500008f
:020000040000fa
:04004c00f2070000b7
:020000040000fa
:04005000f2070000b3
:020000040000fa
:04005400f2070000af
:020000040000fa
:04005800f2070000ab
:020000040000fa
:04005c00f2070000a7
:020000040000fa
:04006000f2070000a3
:020000040000fa
:04006400f20700009f
:020000040000fa
:04006800f20700009b
:020000040000fa
:04006c00f207000097
:020000040000fa
:04007000f207000093
:020000040000fa
:040074000e03000077
:020000040000fa
:04007800f20700008b
:020000040000fa
:04007c00f207000087
:020000040000fa
:04008000f207000083
:020000040000fa
:04008400f20700007f
:020000040000fa
:04008800f20700007b
:020000040000fa
:04008c00f207000077
:020000040000fa
:04009000f207000073
:020000040000fa
:04009400f20700006f
:020000040000fa
:04009800f20700006b
:020000040000fa
:04009c00f207000067
:020000040000fa
:0400a000f207000063
:020000040000fa
:0400a400f20700005f
:020000040000fa
:0400a800f20700005b
:020000040000fa
:0400ac00f207000057
:020000040000fa
:0400b000f207000053
:020000040000fa
:0400b400f20700004f
:020000040000fa
:0400b800f20700004b
:020000040000fa
:0400bc00f207000047
:020000040000fa
:0400c000f207000043
:020000040000fa
:0400c400f20700003f
:020000040000fa
:0400c800f20700003b
:020000040000fa
:0400cc00f207000037
:020000040000fa
:0400d000f207000033
:020000040000fa
:0400d400f20700002f
:020000040000fa
:0400d800f20700002b
:020000040000fa
:0400dc00f207000027
:020000040000fa
:0400e000f207000023
:020000040000fa
:0400e400f20700001f
:020000040000fa
:0400e800f20700001b
:020000040000fa
:0400ec00f207000017
:020000040000fa
:0400f000f207000013
:020000040000fa
:0400f400f20700000f
:020000040000fa
:0400f800f20700000b
:020000040000fa
:0400fc00f207000007
:020000040000fa
:04010000f207000002
:020000040000fa
:04010400f2070000fe
:020000040000fa
:04010800f2070000fa
:020000040000fa
:04010c00f2070000f6
:020000040000fa
:04011000f2070000f2
:020000040000fa
:04011400f2070000ee
:020000040000fa
:04011800f2070000ea
:020000040000fa
:04011c00f2070000e6
:020000040000fa
:04012000f2070000e2
:020000040000fa
:04012400f2070000de
:020000040000fa
:04012800f2070000da
:020000040000fa
:04012c00f2070000d6
:020000040000fa
:04013000f2070000d2
:020000040000fa
:04013400f2070000ce
:020000040000fa
:04013800f2070000ca
:020000040000fa
:04013c00f2070000c6
:020000040000fa
:04014000f2070000c2
:020000040000fa
:04014400f2070000be
:020000040000fa
:04014800f2070000ba
:020000040000fa
:04014c00f2070000b6
:020000040000fa
:04015000f2070000b2
:020000040000fa
:04015400f2070000ae
:020000040000fa
:04015800f2070000aa
:020000040000fa
:04015c00f2070000a6
:020000040000fa
:04016000f2070000a2
:020000040000fa
:04016400f20700009e
:020000040000fa
:04016800f20700009a
:020000040000fa
:04016c00f207000096
:020000040000fa
:04017000f207000092
:020000040000fa
:04017400f20700008e
:020000040000fa
:04017800f20700008a
:020000040000fa
:04017c00f207000086
:020000040000fa
:04018000f207000082
:020000040000fa
:04018400f20700007e
:020000040000fa
:04018800f20700007a
:020000040000fa
:04018c00f207000076
:020000040000fa
:04019000f207000072
:020000040000fa
:04019400f20700006e
:020000040000fa
:04019800f20700006a
:020000040000fa
:04019c00f207000066
:020000040000fa
:0401a000f207000062
:020000040000fa
:0401a400f20700005e
:020000040000fa
:0401a800f20700005a
:020000040000fa
:0401ac00f207000056
:020000040000fa
:0401b000f207000052
:020000040000fa
:0401b400f20700004e
:020000040000fa
:0401b800f20700004a
:020000040000fa
:0401bc00f207000046
:020000040000fa
:0401c000f207000042
:020000040000fa
:0401c400f20700003e
:020000040000fa
:0401c800f20700003a
:020000040000fa
:0401cc00f207000036
:020000040000fa
:0401d000f207000032
:020000040000fa
:0401d400f20700002e
:020000040000fa
:0401d800f20700002a
:020000040000fa
:0401dc00f207000026
:020000040000fa
:0401e000f207000022
:020000040000fa
:0401e400f20700001e
:020000040000fa
:0401e800f20700001a
:020000040000fa
:0401ec00f207000016
:020000040000fa
:0401f000f207000012
:020000040000fa
:0401f400f20700000e
:020000040000fa
:0401f800f20700000a
:020000040000fa
:0401fc00f207000006
:020000040000fa
:04020000f207000001
:020000040000fa
:04020400f2070000fd
:020000040000fa
:04020800f2070000f9
:020000040000fa
:04020c00f2070000f5
:020000040000fa
:04021000f2070000f1
:020000040000fa
:04021400f2070000ed
:020000040000fa
:04021800f2070000e9
:020000040000fa
:04021c00f2070000e5
:020000040000fa
:04022000f2070000e1
:020000040000fa
:04022400f2070000dd
:020000040000fa
:04022800f2070000d9
:020000040000fa
:04022c00f2070000d5
:020000040000fa
:04023000f2070000d1
:020000040000fa
:04023400f2070000cd
:020000040000fa
:04023800f2070000c9
:020000040000fa
:04023c00f2070000c5
:020000040000fa
:04024000f2070000c1
:020000040000fa
:04024400f2070000bd
:020000040000fa
:04024800f2070000b9
:020000040000fa
:04024c00f2070000b5
:020000040000fa
:04025000f2070000b1
:020000040000fa
:04025400f2070000ad
:020000040000fa
:04025800f2070000a9
:020000040000fa
:04025c00f2070000a5
:020000040000fa
:04026000f2070000a1
:020000040000fa
:04026400f20700009d
:020000040000fa
:04026800f207000099
:020000040000fa
:04026c00f207000095
:020000040000fa
:04027000f207000091
:020000040000fa
:04027400f20700008d
:020000040000fa
:04027800f207000089
:020000040000fa
:04027c00f207000085
:020000040000fa
:04028000f207000081
:020000040000fa
:100400006f1521000eff24000e018800000000007f
:10041000000020000000e000020032000001200087
:100420002002880014000700650307000000e000b8
:1004300003003a00005f23000100200002003700a3
:100440000000200001002000810f70000100320038
:100450000f000700000020000000e0000200320052
:100460000000020000000000983a020000000000b6
:100470000040da000000fe00208320000000e000c1
:1004800002003200002020009001880000000600d9
:10049000a1028800800478000000eb001f003700f4
:1004a000e284440054a0b4009905ba00e2844400f8
:1004b00054a0b4009906ba00e284440054a0b400e9
:1004c0000006eb00476fde00fd07b200ae018800ba
:1004d000636ce10003003a000ad801000000eb0061
:1004e0000e003700606ce10008003a00004deb00a0
:1004f0000a05e800020039003420ec000af0a000f0
:100500008b05e900f9ff3e00040037006168e10057
:10051000010032000086eb000b00070019c7ba008b
:100520000e04e0001905ba0003003a000a00e000da
:10053000dbff3a0000000600fe07b200ae028800b2
:100540008a047800f5ff37000cd0a300e20f4d00bd
:100550001c00390089027800354dba000a05e80010
:10056000020039003420ec000af0a0008b05e900fd
:100570000f003200254dba000a05e80002003900dc
:100580003420ec000af0a0008b05e90008003200de
:100590000c00e0000600320015cdba000a05e800a4
:1005a000020039003420ec000af0a0008b05e900bd
:1005b0008984e80054a0b4000b00e000e2ff3a0098
:1005c000000006009902ba00055d78008b05e9007d
:1005d000f7ff3200c82ade00055d78008b05e900d0
:1005e000f3ff32000c00e000f1ff320019ddba0029
:1005f000eeff3700c20e04000000000000000400ff
:1006000000000000fe0e0400000000002a0f04009d
:1006100000000000b41f0400000000000000fa0009
:100620002268a9000268a9000230ef0005e1a800d5
:100630000630ef000830ef000a30ef000c30ef001a
:100640000e30ef001030ef000080fa00004006008e
:100650003600f800809fbe00829fbe00849fbe00cf
:10066000869fbe000400fa0005e1a9000021ef000a
:100670000068a9000268a900108080000000e8005e
:1006800010808800f0190700000f7800f8190700a3
:100690001007980010808000e90f50008c00340093
:1006a0000230ef001e0078000000e0000c00320075
:1006b0001e0090000000e00009003a003080800039
:1006c000e90f500003003c00308080000000e8008b
:1006d000308088000830ef000a30ef00210037003a
:1006e0001e0090000000e0000c0032001e007800a8
:1006f0000000e00009003a0040808000e90f50004f
:1007000003003c00408080000000e800408088003a
:100710000630ef000a30ef00120037001e00900094
:100720000000e0000c0032001e0078000000e00035
:100730000900320050808000e90f500003003c00a7
:10074000508080000000e800508088000630ef00f4
:100750000830ef00030037000630ef000830ef00ec
:100760000a30ef0030808000e30f500003003a00b1
:100770001000200060808800010037000c30ef007e
:1007800040808000e30f500003003a00100020007a
:1007900070808800010037000e30ef00508080002c
:1007a000e30f500003003a00100020008080880012
:1007b000010037001030ef00708080000000e00082
:1007c0001a003200e0898000e10f5000030032007f
:1007d000e20f50000900320014003700118a800037
:1007e00090588500808f50000d003200108a8000e4
:1007f0000000e900108a88000c003700018a8000a0
:10080000108a80000000e800808f5000060032004f
:10081000008a80000000e900008a88000300370099
:100820000000000001003700000000006080800030
:100830000000e0001a003200e0898000e10f500063
:1008400003003200e20f50000a00320014003700ab
:10085000118a8000008a80000000e900808f50002b
:100860000c003200108a80000000e800108a880026
:100870000b003700018a800080588500808f50006f
:1008800006003200008a80000000e800008a88002c
:1008900003003700000000000100370000000000e6
:1008a000808080000000e00009003200e0898000c4
:1008b000e10f5000030034000000eb00e0898800e5
:1008c00003003700e08980000000e800e08988002c
:1008d0001e0090000000e00007003a001e007800b3
:1008e0000000e00004003a0005e1a9000268a90048
:1008f0002268a800020037002268a90005e1a800cc
:100900000080fa004f03be004f02be004f01be0040
:100910004f00be003600f900004006003600f80027
:10092000809fbe00829fbe00849fbe00869fbe0047
:100930000200fa0011e1a90000e8a9000621ef0079
:100940000000eb00000f7800208a80000000e0002b
:10095000030032002000200090808800070037004c
:10096000308a80000000e000030032001000200008
:1009700090808800010037001230ef00b0808000c6
:100980000000e00007003200008080000000e0006e
:1009900011003a00b180800040062000808f500096
:1009a0000d003200fb190700b1808000e0fc2f0031
:1009b0008088b9008000780080382100008f4000d6
:1009c0001e00780060088800100020000080880069
:1009d00011e1a80013003700908080000000e000c3
:1009e00003003200e10f5000030032000400370022
:1009f000d619070003003700ce19070001003700a1
:100a0000d8190700b1808000200320008088b90039
:100a1000000f78001e007800600888000030ef00aa
:100a200011e1a8000080fa004f03be004f02be0093
:100a30004f01be004f00be003600f9000040060026
:100a40003600f800809fbe00829fbe00849fbe00db
:100a5000869fbe000600fa0013e1a9000108a90064
:100a60000a21ef005f160700601a0700020020004d
:100a700003122400ea0207000200200003f0230012
:100a8000d10107006f02070000007800f08988009c
:100a9000f1898000008a8000ea01b900208a800084
:100aa0000000e00002003200b0ff2f00010037001c
:100ab0005000200000004100808f500005003400ed
:100ac00010002000208a88000000eb00308a880097
:100ad00015003700f1898000108a8000ea01b90012
:100ae000308a80000000e000020032005000200048
:100af00001003700b0ff2f0000004100808f500040
:100b000005003d000000eb00208a88001000200056
:100b1000308a8800040037000000eb00208a88003b
:100b20000000eb00308a8800f0898000d8170700a9
:100b30007816070000c2b3000e16070000c2b3000b
:100b40000c16070000c2b3000a16070000c2b3006b
:100b50000816070000c2b3000616070000c2b30063
:100b60000416070000c2b3000216070000c2b3005b
:100b70000016070000c2b300fe15070000c2b30054
:100b8000fc150700208a80000000e000030032000e
:100b900080ae2a00f41707000a003700308a800070
:100ba0000000e00003003200c0af2a00ee1707008b
:100bb0000400370000c2b300ee15070000c2b30006
:100bc000ec150700b0c5b300ea150700118a8000d4
:100bd000010f78001e017800706626000090b900b1
:100be000c288de004f90de0000805000000f7800c9
:100bf000e0898000e10f500008003a00c5170700a7
:100c00000000e0000500320000c2b300d915070063
:100c100000c2b300d71507000e0037001e00780091
:100c2000004078000043b000d2150700108a800011
:100c3000804078001e00780000417800600f20009e
:100c40008090b9000040780000c040000043b00030
:100c5000c8150700c0c2b300c6150700018a80008e
:100c6000010f78001e017800706626000090b90020
:100c7000c288de004f90de0000805000000f780038
:100c8000e0898000e20f500008003a00a117070039
:100c90000000e0000500320000c2b300b5150700f7
:100ca00000c2b300b31507000e0037001e00780025
:100cb000004078000043b000ae150700008a8000b5
:100cc000804078001e00780000417800600f20000e
:100cd0008090b9000040780000c040000043b000a0
:100ce000a4150700d0c5b300a215070000c2b300c9
:100cf000a015070000c2b3009e15070000c2b30094
:100d00009c150700208a80000000e0000d003200e2
:100d100020af2a0094170700218a8000d08080002d
:100d2000808f500026003200208a8000d08088000a
:100d300040b12a00801f78003e0407008f87e90039
:100d40001f003700308a80000000e0000d003200f4
:100d500060b02a0084170700318a8000e08080009c
:100d6000808f500016003200308a8000e0808800ba
:100d700050b32a00801f78002e0407008f87e900f7
:100d80000f00370000c2b3007a15070000c2b3009d
:100d900078150700c08080000000e00008003a00dd
:100da000e1898000c0808000808f50000400320004
:100db000d0b42a00801f78001e0407008f87e90046
:100dc000c0808000e10f50000c003a00e0898000f4
:100dd000e20f500009003a00018a8000108a80006a
:100de000811f7800801f780050b62a00801f78008d
:100df00010040700e68757000e003700c08080000f
:100e0000e20f50000b003a00e08980000000e00093
:100e100008003a00018a8000108a8000811f780053
:100e2000801f780050b62a00801f78000104070058
:100e3000e6875700c0808000e10f400004003200c8
:100e4000e1898000c0808000808f50001600320051
:100e5000e0898000e10f500009003200e20f5000ed
:100e60000c0032000000e0000f003a0070ba2a00c7
:100e7000801f7800ef0307008f87e9000a00370022
:100e8000b0bc2a00801f7800ea0307008f87e900c2
:100e90000500370070bf2a00801f7800e5030700b7
:100ea0008f87e90000000000f0898000cf80de001d
:100eb0008501070002002000031224001f01070023
:100ec0001007980021079800c0808000e10f4000c3
:100ed0000b003a00018a8000108a8000811f780090
:100ee000801f780050b62a00801f7800d1030700c9
:100ef000e6875700f0898000a08088002f00370027
:100f0000f1898000a080800000805000e40f500034
:100f100013003400f1898000a08080000080500020
:100f2000cf80de00680107000200200003122400c9
:100f3000020107001e019000ae019000829fbe00da
:100f4000809fbe0040c22a00801f7800b9030700be
:100f5000ea875700f0898000a080880017003700da
:100f6000a1808000f089800000805000e40f5000d4
:100f700012003400a1808000f089800000805000c1
:100f8000cf80de0050010700020020000312240081
:100f9000ea0007001e019000ae019000829fbe0093
:100fa000809fbe0050c52a00801f7800a103070063
:100fb000ea875700f0898000a0808800e0898000df
:100fc000c080880013e1a8000080fa004f03be0033
:100fd0004f02be004f01be004f00be003600f900b8
:100fe000004006000040da000000fe000a00fa009f
:100ff00011002000b1bf9f00c0bf9f006a80570052
:10100000c80707004fb897000080fa0000000600ec
:101010000a00fa00e20f500034003e00808a80008f
:10102000e10f500003003200e20f500011003a00bf
:101030000c003700032220000300e00001003a000a
:101040000040da002002e200020035002822ef0012
:1010500021e2a8002342ab000d003a002342a80081
:101060000b003700032320000300e00001003a00da
:101070000040da003002e200020035003822ef00c2
:1010800031e2a8003342ab0001003a003342a8002d
:10109000820178000b0037003102fb00e10f5000a5
:1010a00004003a002322ab00feff3a00241188001e
:1010b000030037003322ab00feff3a00a411880082
:1010c0008301e9000300e000f3ff3a00e10f500064
:1010d00003003a002302ab00feff32000b00370092
:1010e0003302ab00feff320008003700330020005f
:1010f000b3bf9f00c0bf9f00d1bf9f00e2bf9f0052
:101100006a805700890707006fb9970002007800ce
:101110000080fa00000006000a00fa0051002000da
:10112000b1bf9f00c0bf9f006a80570081070700c2
:101130005fb897000080fa0000000600889fbe009c
:1011400080047800908a80000000e00004003a00eb
:101150000e0007000084eb000000e00008003500ee
:10116000988a80000900e000050032000900440070
:10117000060007000000e00001003d000084eb00d5
:10118000080078004f04be000000060080007800d0
:101190000100e00003003a0000002000908a88006f
:1011a000000005000080eb0002002000828f50004c
:1011b00002003e00918a88000000eb00000006005b
:1011c0000000050003f0a200889fbe008a9fbe00b9
:1011d0008c1f7800fa000700010133006450e10021
:1011e0004f0032006420e1005200320003826c00a4
:1011f00007003b000905d0000306d000820f540011
:101200000c065d00020039000200320089017800fe
:10121000030678008582550004003d000003fd00b0
:101220008103fd008502ea008b854200840f720075
:1012300002003b0060001000e08018006011b80060
:101240000005eb007a28e1000a003900060078006a
:10125000c75ddd00f707b200878075002d003700fd
:10126000828171000a017800610560008180d100ef
:101270000080d3008502e900f9ff3b00060440002e
:101280008784480002003b0060041400e0841c00d6
:101290000988a300070032008a81710082817100f1
:1012a000610164008904d1000884d3008b05e80043
:1012b000170037000978a30013003a000b00e00084
:1012c000130034008b05e9000804440089844c00b5
:1012d0000a4474000978a3000d003a000b00e000f6
:1012e000070034008b05e9000804440089844c00a1
:1012f00001003a000b0020000978a300f7ff32003c
:101300000001eb0002003700828171000a017800c1
:10131000700007000cf0a70001f0a000b900370032
:101320006420e10002003a00838f6c00b9003300b2
:101330000801be000200be00b2003700889fbe0058
:101340008a9fbe008c1f78009d000700a400330018
:1013500003866c006450e1002e0032006420e1003e
:10136000330032006150e1002f0032006120e100c3
:101370003100320085855500eb07b00009002000e0
:1013800008042000050037000804440089844c004c
:101390000a0031000603430087834b00000153001d
:1013a00081815b00f8ff33000203be000800a0004b
:1013b0000804440089844c00f6ff3900c639dd007a
:1013c0008301730001003200130020008904d10062
:1013d0000884d3000998a300050032000800a70084
:1013e0000300a0008904d1000884d3008b05e80025
:1013f0008904d1000884d3000001eb000281d200ef
:101400003400070001f0a1000cf0a70001f0a000db
:101410007c0037006420e1007e0032000801be003d
:101420000200be00f7ff37006120e10079003200c2
:101430006000b800f3ff37000000200001f827002b
:10144000f0ff37000001be00480007000470a7004d
:1014500003f0a1006509b100160032000d0035004f
:101460006828e10006003500f0ff2f00f1ff27009b
:101470000300e00013003b0001002800000005000d
:1014800000004000818048008502e900fcff3a002e
:1014900008003700f88f420002003c008000eb009b
:1014a000000005008100d1000080d3008502e80023
:1014b000fcff3a000300e00002003b006000100067
:1014c000e0801800000006004f89de0082017800ed
:1014d0008700370081002000618055000b003d002f
:1014e0000b00200061fe2f000100e1001d00340010
:1014f00082817100610164008904d1000884d300f5
:101500000000e800faff3a0071002000610064006a
:101510000300700002006000090032006104440012
:10152000e0844c000988a500050032008b05e80026
:101530006808e10002003a008904d1000884d30061
:10154000f20f20000258e10005003d00c75ddd00fc
:10155000f907b200898075000800780000000600d5
:101560000bf827008b00780000000500c70ade009a
:10157000f107b200f50fb20008003200e1cf4200df
:10158000020032000170a00024000500810f7000ed
:10159000010032000408050044000500810f7000be
:1015a00002003a00140005008502e9000000400036
:1015b00081c04800fcff3b000170a0002400050032
:1015c0000004be00e9ff07000003be000405be00e2
:1015d0000200be00e5ff0700844f75000000060012
:1015e0000200be006450e100050036006420e10006
:1015f000020036000968a30001003a000800be009e
:101600000160a0004f0678004f05be004f04be00e9
:1016100000000600f0ff2f00f1ff2700f9ff370060
:10162000889fbe008a9fbe008c1f7800e4ff0700e1
:10163000ebff330003866c006450e10024003200ad
:101640006420e100270032006150e10022003200f6
:101650006120e100210032008b854200eb07b100e0
:101660000134b800003ab8000804420089844a00f6
:10167000013ab8000030b8008880400009014a00f3
:10168000040033000000400081804800020149004e
:101690008b05e900c909dd008301700001003200fb
:1016a00013002000c814de004814dd004709de00e6
:1016b0001200b200c808de000884700085ff070031
:1016c00001f0a1000cf0a70001f0a000cdff370051
:1016d0006120e100cfff32000801be000200be0021
:1016e000f7ff37006150e100fcff3a00c9ff370007
:1016f000881f7800030478000300e00007003d0025
:1017000060001000e080180060011900e0811900fd
:1017100002003b0001f02d00030037000400070029
:1017200008f0a70001f0a0004f04780000000600b8
:10173000889fbe008a9fbe00008270000402710074
:1017400004827100260032000004be000200be00c8
:101750006011b8006b092000950220000182cf00c3
:101760000a0039000541b1000082cf0007003900ae
:101770000541b1000982cf00040039000541b100e4
:101780000882cf00010039000541b1000542520036
:10179000120032000a003b00828171006101640086
:1017a0008100d1000080d3008984d3000884d30055
:1017b0008b05e8000442e800f7ff3a000700370015
:1017c0000804440089844c000000480081804800df
:1017d0008b05e9000442e900f9ff3a003dff0700ec
:1017e0004f05be004f04be0000000600810421002a
:1017f0006b000700800078000080eb000100e00033
:101800000400350081042100a00020000200070030
:101810004f80de0000000600889fbe008a1f78000f
:101820000004be00c900900069009000808f500045
:101830000600390009007800b80007008000780031
:101840000080eb000100e00017003500084578003b
:101850004900900008587800c004980019007800ea
:1018600000b8a30004003a0000a8a300080032005a
:10187000ea4f540006003a00090078000d00070006
:10188000800078000080eb000100e00006003a00d4
:1018900000c02000190060000200320049009000e2
:1018a000e00498000a80fb004f0578004f04be005a
:1018b00000000600889fbe008a1f780000047800a0
:1018c0000800e0000d003a0068092100700544009e
:1018d0008004eb00580078000000e00004003200b3
:1018e000f4ff07000000e00001003d008084eb00f1
:1018f0008a0f5400f7ff3a0025003700000022004d
:10190000180060008004eb0021003200a804900061
:101910000f00370009015100384090000000fb0023
:1019200089007800bafd07000000e00007003c00d5
:10193000280090004004980060049800500c980023
:101940001890a0008084eb001100370080844400d0
:1019500048019000828f5400eeff3900280090006b
:10196000400498009800780002c0200002816000c6
:1019700001003a003800900001e8a30002003200a4
:101980006004980001003700500c98008004eb00c0
:10199000090078004f0578004f04be0000000600e3
:1019a000889fbe008a9fbe008004780001047800f2
:1019b0002c003700c800900068009000808f500015
:1019c0000400390008007800540007000000e0001f
:1019d0003700350000402000180060000900320088
:1019e000a10020000900780042000700800578006f
:1019f0000b00e00003003200618514000a854500f9
:101a00000400370009007800340007000005780062
:101a10008005eb0048009000e800900080805000b6
:101a20008a8f500002003100010578008005eb002c
:101a30000a01780089007800210007004800900022
:101a40000a004000400498000b00e000040032004f
:101a50000800780097ff07000000e00014003a003b
:101a60008a8444001904e000d2ff3a00008020007c
:101a70001800600006003200080078008dff0700a3
:101a8000800078000080eb000100e00009003a00cf
:101a900001c02000988060000000eb0005003200cb
:101aa00048009000600498000000eb00010037003f
:101ab0000080eb004f05be004f04be000000060092
:101ac0008001780002003700b15978000201e90076
:101ad0000200e000fcff3a000000060080007800f1
:101ae000010178003104e000fdff3a0000005100e0
:101af000000006000001eb0000027800b041780011
:101b000081cf510001003a00040178000304e00095
:101b1000f9ff3a000200780000000600889fbe002e
:101b20008a1f780000047800c800900068019000c7
:101b30000000eb00828f50003c0039001800780054
:101b40002200290002016000e20f5100070032006c
:101b5000012020000000e0000100350001202400e9
:101b6000008c70000080eb0030003700020026007f
:101b700002006000820f500009003a003800900017
:101b8000808f5000060039000800780049ff0700e8
:101b9000800078000080eb000100e00023003a00a4
:101ba0001805780000c020000000650018003a0009
:101bb000a80490006002200008004000808f5400bc
:101bc00013003a0000202000910107002004980033
:101bd0000000e00005003a0029049800490498003c
:101be0008904e80039049800080037000a60a00062
:101bf0000a0c7800400498000120200080804000fa
:101c000031049800400c9800500c98000c0007001c
:101c1000280090005004980038009000600498005c
:101c200000002600180c70000000eb004f05780043
:101c30004f04be000000060020ec200062003700c8
:101c4000881f7800c81421001804e00003003a003f
:101c5000f9ff070020c0b300004c78004f04780063
:101c600000000600889fbe0000047800080078008d
:101c700010ff0700800478000004200018006000b6
:101c80000200320028009000930007000000eb00e3
:101c900020049800384090000004e0000500350062
:101ca0000000fb00d1fc07000000e0000100320052
:101cb0008084eb00181090000000e0000800320063
:101cc00015fd07000000e000010032008084eb00f9
:101cd00018109000800007000000eb00101498001e
:101ce0000008200018006000150032000001eb0021
:101cf0006000b8000202d000830921000302420004
:101d0000940f140005003a00000040008180480054
:101d1000008041000008eb00060037006100400031
:101d2000e08048000201e800e80f5000e08f580012
:101d3000f0ff3a0008007800670007000e00370047
:101d4000000c780000c0eb003044980060022000d6
:101d500008004000200498004004980050049800b7
:101d6000400c980060049800500c98007004980093
:101d700076004400000c9800090078004f04be0073
:101d800000000600881f78000004eb006140b800e6
:101d9000e2ff2f00f3ff2f003e060700620a21003a
:101da00080004100110078000000e00001003200d6
:101db000acff07000804e800e80f5400f3ff3a0006
:101dc0004f04780000000600010020000100e00040
:101dd00009003200010080000100e000060032002e
:101de0008100e900010088008100d000020080002d
:101df000828040008008780000000600889fbe00b6
:101e000000047800010078008204780088017800de
:101e1000090178001100200061000700890f5000bf
:101e2000010032000004eb00080078004f04be00ff
:101e3000000006000000fa00e88157004fb9970043
:101e400081042100e0ef2000110907000080fa0062
:101e500000000600889fbe000004780001007800a2
:101e600082047800880178000901780011002000c0
:101e70004b000700890f5000010032000004eb0006
:101e8000080078004f04be00000006000000fa00c1
:101e9000e88157004fb9970081042100a0f220008b
:101ea000fb0807000080fa000000060080027800ae
:101eb00001037800110009000203d80080017800b6
:101ec000830a78008299b900820053009102980039
:101ed00005007800000006000000e0002f0032003e
:101ee000c0017800e38f51002c0036000308a300e6
:101ef0002a003a00518a80000100e000020032000e
:101f0000810f50000400310011009800508a8800b1
:101f10001600370082007800110190000200e000f6
:101f200002003200800f5100faff390011027800e0
:101f300084824000850f500018003900808f5200c5
:101f400003003a00830842000100780007003700d0
:101f50000200e0000300320083014000830f5100c3
:101f60000e00390012009800900098009000900038
:101f70000100e0000900320010014000828f500093
:101f800006003a00821421000009eb0010017800dd
:101f90001108410091009000110098000000060017
:101fa000889fbe008a9fbe008c9fbe008e1f780057
:101fb00000067800010478000200780083047800ad
:101fc0008881b900020778000e00e000420032006c
:101fd0000800e000410032008e057800c900900042
:101fe00069009000808f50000400390009007800db
:101ff000cafe07000000e000290035000040200074
:10200000190060000a0032000b017800a1002000d6
:102010000c007800a8000700800678000d00e000a2
:1020200006003200610516000a85460004003700ec
:102030000b0578008006eb00010037000b057800e7
:1020400049009000e9009000808050008a8f500085
:1020500002003100010578008006eb000a017800db
:102060008c00780096fe07008a8555004900900094
:102070000a004000c00498000d00e0000400320097
:10208000090078000bfe07000000e00004003a00a1
:102090000b00e000020032000a064600cfff3700c6
:1020a0000080200019006000020032000900780062
:1020b00000fe070000c0200019006000020032008e
:1020c00049009000e00498008b05570011000900ba
:1020d0008885d800010037000000eb004f0778002a
:1020e0004f06be004f05be004f04be0000000600b4
:1020f000881f78008a9fbe008c9fbe000004780075
:102100000205be000406be000401be000a00be00b7
:1021100032040700008cbe000c01be005d05070004
:102120000005550081855d002a0498003b04980055
:10213000080078004f06be004f05be004f0478002f
:1021400000000600889fbe0000047800418a8000dd
:102150000100e00002003200010078000d003700ad
:10216000518a8000a014210004003700910f540010
:10217000250036000180e800910090000100e00099
:10218000faff3a0010003700920f54001e0036008c
:102190000280e800100178000200e000faff3a0037
:1021a00011017800518a8000a0142100040037003a
:1021b000910f5400140036000180e8009100900057
:1021c000828f5000faff3a00798a8000888f54008d
:1021d0000100310088047800090078004c000700f5
:1021e0000000e00004003a00888f5400050032002f
:1021f0008904d100f5ff37000918780036ff070081
:10220000d2ff37000000eb004f04be0000000600c4
:10221000881f7800630440000800a1008000eb00e4
:10222000800f540021003600e30f540001003e00ef
:102230004800200008007800c2ff07008000eb0083
:102240000000e00019003200900078009101780051
:1022500064815100880f510003003100110190008a
:102260000208780007003700088140000208780063
:1022700091019000130198001001780011091400d9
:1022800088087800100178000000eb000200e000f0
:1022900004003200920190000300e00001003200cf
:1022a0000280e800408a88008180e8000100780010
:1022b0004f0478000000060003003700b0cf100084
:1022c000050032000201e900800178000200e00010
:1022d000faff3a0000000500030078000000060045
:1022e000020037000304e00006003200000178001d
:1022f00002007800b041780081cf5100f9ff3a0028
:10230000010037000001eb00020078000000060029
:10231000800078000000eb000100e00005003400c0
:102320000100780085fb0700e10f400001003a0042
:102330000000eb0000000600889fbe00000478004b
:10234000e68440001900d0004500de00f27f200046
:10235000820f500010003a00000ceb009904780046
:102360006f816400200020001b003a0021019000d2
:102370000200e00018003a00110190000200e000a5
:1023800015003a00100020001100e0001200320099
:1023900020002000100037000000e00004003a0098
:1023a00001007800930207000000e00008003c00f4
:1023b000f20028001901610001fe2300810c710068
:1023c00021c02f00010c40000080eb00020037000c
:1023d000000ceb000000eb004f04be000000060004
:1023e000fc874700889fbe008a9fbe008c9fbe006e
:1023f0008e1f78000006780080c5b30080cf5000a3
:102400000a0032007740400080cf50000a003200be
:102410006940400080cf50000b00320010112100b5
:1024200080bf9f00ae0020000a003700021021008c
:1024300082bf9f00060037001311210083bf9f0059
:102440008e002000030037001411210084bf9f007c
:102450000e0120001c0278009c0290002c039000ca
:10246000bc0390000605be000404be0040c6b300d5
:1024700080cf5000030032006540400080cf500004
:102480000b003a00e00f5200e08f5a00e00f5b00b3
:10249000e08f5b0006003d006000b8006011b800ee
:1024a00004045000858458000605590087855900aa
:1024b000e80f57000400320040002000f00f5700e2
:1024c0003c003a000100370030002000e00f5400cb
:1024d000e08f5c00e00f5d00e08f5d0004003a00db
:1024e0008c1090008d0120000100e00007003200f8
:1024f0008e00e900888060008fba970081804200da
:1025000091407800f1ef9f007d012000800078006d
:102510008100e900050033008b05d1000a85d30056
:102520008984d3000884d300f9ff3700089ebe00d9
:102530000a96be00130037008d06e9008e00e90000
:10254000848060000fb9970081004100114178003c
:1025500083fd2f008d81410082f779008001780092
:102560008301e900050033008783d1000683d3008f
:102570008582d3000482d300f9ff3700049ebe0099
:102580000696be001c0278009c0290002c0390006e
:10259000bc039000e00f5200e08f5a00e00f5b0098
:1025a000e08f5b00930034000d00e000e2ff3c0090
:1025b000900037000c68900081c6b300814f500036
:1025c0000b00320006003c000004e000080032006e
:1025d000e6c05000814f500052003a00040037001e
:1025e000c1c6b300814f50004e003a0023003700af
:1025f0000800e00004003a000c1090008d0120005b
:102600000000e00007003200110009000e84d8002d
:102610000fba97000100420010407800f0ef9f00d1
:102620007d012000110009000e84d8000b00370046
:10263000110009000e04d8008d06e9008e81b90052
:10264000020454008fb89700088440009841780035
:1026500082fd2f000d01410083777900000478008e
:102660000800e000020032000d00e000f0ff3c0036
:10267000cfc4de00614db90027003700e00f5400e1
:10268000e08f5c0004003a000c1090008d012000e7
:102690000000e000080032006171b9000800be00cf
:1026a000f90307000fba97008000420091407800bc
:1026b000f1ef9f007d0120006171b9000800be00ac
:1026c000e10307000c0037006171b9000800be008b
:1026d000c20207008d06e90080f1b900020454002f
:1026e0008fba9700088442009841780082fd2f003d
:1026f0000d014100837779000004be00e00f500017
:10270000e08f5800020032000d00e000eeff3c00b8
:102710004fcdde008a057800089ebe000a96be00f6
:1027200034003700e00f5400e08f5c00e00f5d00e4
:10273000e08f5d0004003a000c1090008d01200035
:102740000000e0000a0032006172b900612bb9009c
:102750000800be000a01be00760407000fba970009
:102760008000420091407800f1ef9f007d01200041
:102770006172b900612bb9000800be000a01be00f9
:10278000650407000e0037006172b900612bb900c3
:102790000800be000a01be006a0407008d06e900b9
:1027a00080f2b900040454008fba970008844200f4
:1027b0009842780084fd2f000d02420085777a0050
:1027c000009ebe000296be001c0478009c0490008f
:1027d0002c059000bc059000e00f5400e08f5c00d9
:1027e000e00f5d00e08f5d00020034000d00e000ae
:1027f000e5ff3c00e80f570010003a003c10900045
:102800000038a3000d003200f78f560006003e008e
:1028100080fd2f000d004000ef40780000c3b300a2
:1028200080cf50000500320002c3b30071fd2f00bd
:102830008d8040008d06e90082f7780078811600cf
:10284000420e98007c00900083fd2f008f81410094
:102850008d8041009afc07004c0890008c1090007d
:10286000810f500006003d0000805000300e98009f
:102870003c1090000040a100301698000f00370077
:102880000100e0000d003d00bc109000f4806000ed
:10289000f08f500009003a002c119000ac08900015
:1028a000810051003c09900082805000008050005f
:1028b0004240a90001003400300e98004f07780014
:1028c0004f06be004f05be004f04be00cf01b10051
:1028d000000006000400fa00889fbe008a9fbe0028
:1028e0008c1f78000004780001067800a81490007e
:1028f0002808900080845400380890008084540098
:102900004808900080845400580890008084540047
:1029100068089000808454007808900080845400f7
:102920000002220090bf9f0000032300a0bf9f0071
:10293000381090000028a30015003a000900e000bc
:1029400013003400090578008a057800e20f55006d
:10295000010036002b002000c80190000b01780018
:10296000ee805700680090000300010060049800aa
:102970000000e000aa003200181090000b00400098
:10298000101498000b0555004240a900eeff3c00d2
:10299000280990000200e0000c003400c8019000fb
:1029a0008c0078006800900003000100600498002b
:1029b0008080eb000000e0009a0032009810900048
:1029c000280890000080400010149800380d9000f6
:1029d0000a00e000110034008a057800e20f55007b
:1029e000010036002b002000c80190000b01780088
:1029f000ec8057006800900003000100600498001c
:102a00000000e00086003200181090000b0040002b
:102a1000101498000b055500edff37000869900071
:102a2000c808900050c6b300804f510008003a001b
:102a30000100e000150034005802900008099000e1
:102a4000980990006800900004000100070037001a
:102a50000100e0000d003400c80190000101780081
:102a6000f8009000680090000300010060049800e6
:102a70008080eb000000e0006a00320098109000b7
:102a8000480890000080400010149800580d9000f5
:102a90000a00e000110034008a057800e20f5500ba
:102aa000010036002b002000c80190000b017800c7
:102ab000ec8057006800900003000100600498005b
:102ac0000000e00056003200181090000b0040009b
:102ad000101498000b055500edff370008699000b1
:102ae0006808900051c6b300814f51000d003a00b4
:102af0000000e0001c00340078019000c80890003d
:102b0000010141006111b800828fd2008381d2009f
:102b100058029000800078006800900004000100d6
:102b2000090037000000e0000f0034007801900039
:102b3000c808900081004100c801900000017800a1
:102b40006800900003000100600498008080eb00a2
:102b50000000e000330032009810900068089000f8
:102b60000080400010149800780d90000a00e000ea
:102b7000110034008a057800e20f5500010036008c
:102b80002b002000c80190000b017800ec8057005a
:102b90006800900003000100600498000000e0005d
:102ba0001f003200181090000b0040001014980015
:102bb0000b055500edff3700381090008000eb004a
:102bc0000028a300170032000900e00015003400bf
:102bd00009057800e28f5400010036002a00200029
:102be000c80190000a017800ee805700680090004c
:102bf00003000100600498000000e00008003200bb
:102c0000181090000a004000101498008a845400a4
:102c10004240a900eeff3c008000eb0001003700bd
:102c20008080eb00010078004f0678004f05be0061
:102c30004f04be000080fa00000006000108780082
:102c400000000600e6874700889fbe008a9fbe00fe
:102c50008c9fbe008e1f780082bf9f000404780006
:102c60008299b900f2b79f000200e00059003200db
:102c70000fb997000200e000570032000006be00c6
:102c80007fb79700c800900068009000808f5000c8
:102c90000400390008007800a0fb07000000e000f5
:102ca0003b00350000402000180060000a003200a0
:102cb0008e017800a20020000c00be00c8000700b2
:102cc0000005be0000807500070032008c0455002e
:102cd0008904e800050037008e0478000a0020000f
:102ce0000b002000010037008e047800480190009e
:102cf0006800900002005000890f5000030031006e
:102d0000800478000a0020000b0020006111b80048
:102d1000828fd2008381d200090278000c00be00ad
:102d2000860007000907570048009000090040008e
:102d3000400498000a8575000400320008007800fd
:102d4000dcfa07000000e00011003a000e00e0008d
:102d50000f0032006148b800808fd2008180d2001d
:102d60000000780000f0a1000c01d0008001d0002c
:102d7000030641004220a80081864e004200a900bf
:102d80004220ae004200a8000c86d300bdff3700f1
:102d90000080200018006000020032000800780067
:102da000c4fa070000c020001800600002003200d2
:102db00048009000600498007fb197000e07510012
:102dc0000fb99700110009000287d8008001780030
:102dd000010037008001eb00030078004f07780006
:102de0004f06be004f05be004f04be006f00b1008d
:102df00000000600e60040001101780005002800f0
:102e0000850261006f0161008208780002003200d3
:102e10001200200011003700a001900012002000d5
:102e20000300e0000d003a00900190000300e00074
:102e30000a003a001000e00008003a0036003700af
:102e4000640340009608780080017800530b7800f6
:102e50009009780004087800700151001102780090
:102e60000400e000f6ff3200130037006402400067
:102e7000140378004f33de00838141008308730020
:102e800080017800d3037800cf3bde001403780084
:102e900006034300068a730013027800040242000e
:102ea000100378004f33de0086097200900178002d
:102eb000038841000201e90091017800ef8f510081
:102ec000eaff3600100037008001780053037800d5
:102ed0004f33dd001002d10004087300640240008b
:102ee00094037800cf3bdd001303d1008689730083
:102ef000110378004f33dd009401d100030a730001
:102f00009108d1000201e80091017800ff8f510083
:102f1000edff3e00ef8861009188720002007800aa
:102f20000000060000c0da000000060000c0da0061
:102f30000000060000c0da00000006003400f800bf
:102f40003200f8000203be008202700085027200a7
:102f500002f0a6008301e800a301880000f0a600ab
:102f60008100e800910188001500b2000c003200d9
:102f7000104978000402e9001500320061014100a7
:102f8000020039003420ec000200280061004000fb
:102f9000f7ff39003220ec0000002800f4ff370072
:102fa000100978000482e900090032006201410042
:102fb000020039003420ec000200280062004000ca
:102fc000f7ff39003220ec0000002800f4ff370042
:102fd0003200f9003400f9000601be0000000600ce
:102fe0000300e000070032009501800001d0fe00e0
:102ff0001042780005d0fe000402fb00820f520050
:10300000110032008301e9009501800001d0fe002b
:103010001042780005d0fe000404e00008003200f1
:10302000000278001000b00000026a004260af00a9
:1030300000f0a0000482d2000180b000e8ff370059
:103040000000200001002000000006008f1fd100ba
:10305000190307008f87e9000000e0000000060068
:10306000809feb00140307008f87e9000000e00059
:10307000000006002800fa00889fbe008a9fbe005c
:103080008c9fbe0003866b008f0007006400e10088
:10309000440032006408e1004a0032006100e100af
:1030a000460032006108e10049003200ec064700aa
:1030b0006000b8003d02be003d03be00f48657002c
:1030c0006011b8003d04be003d05be007d03200038
:1030d0000b0037000000a0008d06e900130032004d
:1030e0000402420085824a0006034b0087834b009e
:1030f00000004000818048000201490083814900ae
:103100000802520089825a000a035b008b835b002d
:10311000f0ff3b000802420089824a000a034b008c
:103120008b834b008d06e900edff3a00848272002c
:1031300086827200f707b2008782720001003200b7
:10314000150020001e0490003e0b90000603540062
:10315000e63fb0000368a300070032000000a700ac
:103160000500a0008301d1000281d3008180d3003b
:103170000080d3000603e8008301d1000281d30060
:103180008180d3000080d3000002eb000482d200d3
:103190002100070003f0a1000cf0a70003f0a0003d
:1031a0005d003700640247006408e1005700320008
:1031b0003400be003401be00f6ff37006108e100b4
:1031c000520032006011b8006000b800f1ff370013
:1031d00003ff270002002000fbff3700839f6800e9
:1031e0000100e00002003d0060001000e0801800d7
:1031f0000300e00002003d0060011100e0811900c1
:10320000110107004f00e00002003b0060001000c9
:10321000e080180000000600180020005700200081
:10322000080453000d003d000600200097fc2f000d
:103230000740e1001e0034008482720061026000d9
:103240008301d1000281d3008180d3000080d300ac
:103250000804e800f8ff3a0047002000610460001d
:1032600005047400040464000d0032006100400095
:10327000e080480060014900e081490003b8a500f2
:10328000070032000603e8006538e10004003a0058
:103290008301d1000281d3008180d3000080d3005c
:1032a000f87f20000830e1000300350008037800b3
:1032b0006000b8006011b8004433dd00f300b200d4
:1032c0008301730000000600680447000294be00fa
:1032d0000094be00fc0447008694be008494be00a7
:1032e00009007800be02070008007800bc02070051
:1032f00099007800814f70000b003b000800be0071
:10330000960207004f00b10003003700f3ff2700cb
:10331000f2ff2f006110b9004f06be004f05be003e
:103320004f04be000080fa00000006008103780010
:103330008ef807000001be006000b8000478a3000a
:1033400013003a006220e10015003e000d00390034
:103350008301d1000281d3008180d3008301d10099
:103360000281d3008180d3008301d1000281d30088
:103370008180d3000538b000c42add00f300b2001c
:103380008381720007f0a70003f0a0000000060090
:10339000f3ff2700f2ff2f006110b900fbff370099
:1033a00003ff2700f7ff37001400fa00889fbe00d4
:1033b0008a9fbe008c9fbe000004be000205be00b6
:1033c000680047000a90be000890be008402070013
:1033d0000070a7000bf0a100304320009e02900077
:1033e00080825200b0fe2f000028e10011003d0055
:1033f000b0fc2f000028e100150034001e099000e9
:103400008e0890007e0090000501b0000201d100fe
:103410008180d3000080d3008502e800fbff3a00e2
:103420000b00e000bcff3b0060001000e0801800d3
:10343000b9ff3700f0ff2f00f1ff27000b00e0007d
:10344000b5ff3b000100280000002000b2ff37005c
:103450006000b800b0ff37004f89de0082017800bd
:1034600086023700000000002800fa00889fbe0096
:103470008a9fbe008c9fbe0003866b0092ff0700f0
:103480000028a30064003a000128a30068003a0065
:103490000008a30062003a000108a30066003a0099
:1034a0001e009000be08900081064000ed3fb10074
:1034b000f4805700ee019000111ab8008e099000b8
:1034c000311bb8009e099000311cb800511db80096
:1034d000f485570046000700fe0190003a000700ff
:1034e0008b85e8003e0007008e0990004000070031
:1034f000ee019000340007008b85e80038000700db
:103500008e099000400007009e0990001b18b8002b
:10351000890440000a854800fe019000340007003d
:103520008b85e80038000700ee01900030000700ae
:103530008e0990001b18b800890440000a854800d5
:103540000a98a30008003a000402420085824a005b
:1035500006034b0087834b0008044c0089844c0011
:103560000a054d008d06e900848272008502730011
:103570004c3add0085027200010032001500200087
:10358000443ade001400b2004538de00cb45dd00d1
:103590000b007000c540de00cb4ddd008b8070005d
:1035a0004549de00cb55dd000b017100c551de0041
:1035b0000d03780018ff070003f0a1000cf0a7002e
:1035c00003f0a00054ff37001b18b800850240002c
:1035d00006834800e0834b0060044c00070037007e
:1035e0001b18b8000603400087834800faff370025
:1035f0001b18b8008703400008844800e0844c0092
:1036000060054d00000006001b18b80008044000cb
:1036100089844800faff37000108a3003bff3a0005
:103620005800be00000000005801be00e2ff370055
:103630000008a30035ff3a0009047800f8ff3700be
:1036400007f0a2001e0137006022b8000602200029
:103650000000d0008180d2000482d2008582d20096
:103660000000a0000202520083825a0003003100d1
:103670000202420083824a000000a1000603e90022
:10368000f3ff3a0000000600efff07000400be0051
:1036900000000600020ab900001bb9000200b800d1
:1036a000810042008100430000000600889fbe00a8
:1036b0008a9fbe0030044200b0844a0030054b00af
:1036c00090854b006000b1000898be000a90be00d3
:1036d0000440e10005c8e10006d0e10007d8e100a0
:1036e00002003100680040001008e8004f05be00ed
:1036f0004f04be0000000600889fbe008a9fbe00e7
:10370000100478009004900020059000b00590000f
:103710000418540005985c0006185d0007985d00c9
:10372000110020000440e10005c8e10006d0e100de
:1037300007d8e100010039008000eb00108810007c
:103740004f05be004f04be00000006001200fa0044
:10375000889fbe008a9fbe008c9fbe00e0b79f007e
:10376000f1b79f0082bf9f0093bf9f000605be0078
:103770000404be000000eb00d0b79f00c0b79f005c
:10378000b0b79f00a0b79f0090b79f0000067800d9
:103790005fb19700cfb09700820141003fb0970022
:1037a0000200e00004003d00370007007e80570063
:1037b000beff070003003700330007007e8057007c
:1037c000cdff0700dfb697000d00e0000c003500cc
:1037d0006fb29700ffb297000fbb97009fbb970097
:1037e00010002000010020006011b80000027200eb
:1037f0008182720002037300838373001b00070041
:103800000c06e80001042000810f5600e0ff3a009a
:103810000d00e00004003d000802be000a03be00e7
:103820007e805700a1ff07005fa897000000e0001e
:1038300005003a001fb29700afb297003fb3970060
:10384000cfb39700090007006fb09700ffb0970053
:103850000fb997009fb997004f06be004f05be00f5
:103860004f04be000080fa000000060001000700bf
:1038700000000600a4b79f00b5b79f00c6b79f0021
:10388000d7b79f00000006004f09de00828171005b
:10389000b3b79f004f01de0081804000828070003e
:1038a000a1b79f008fb097004f09de0000004000d5
:1038b0000200700090b79f007fa897004f01de00c4
:1038c000818040008280700081b79f000d0007005a
:1038d0004f3ade000000400004007000f0af9f008f
:1038e000080007000402420085824a0006034b00dc
:1038f00087834b00dfff07000802be000a03be00fb
:10390000000006002fb29700bfb297004fb3970098
:10391000dfb3970000000600881f78001800200021
:10392000881f780089ff07008f87e9004f0478001f
:1039300000000600801feb0084ff07008f87e9006e
:1039400000000600889fbe008a9fbe00e00f500066
:10395000e08f5800e00f5900e08f59000c003d0047
:103960006044b8006055b8000000540081805c00dd
:1039700002015d0083815d00180020001500070032
:1039800008003d00180007000004eb0005003700a8
:103990000004eb000f00070002003d0012000700ca
:1039a00018002000dcff07000800e00006003200dd
:1039b0006022b8006033b8000000520081805a00d5
:1039c00002015b0083815b004f05be004f04be0017
:1039d00000000600e00f5200e08f5a00e00f5b008d
:1039e000e08f5b00000006006044b8006055b8003e
:1039f0000402540085825c0006035d0087835d003d
:103a000000000600889fbe008a9fbe008c1f7800c1
:103a1000e00f5000e08f5800e00f5900e08f590090
:103a20000d003d006044b8006055b800000054002f
:103a300081805c0002015d0083815d001c0020002c
:103a40000820e10009a8e1000ab0e1000bb8e1009c
:103a50000d003d00080037000006eb00e00f5200ab
:103a6000e08f5a00e00f5b00e08f5b0006003d0036
:103a70006044b8006055b8000402540085825c00c0
:103a800006035d0087835d00aaff07000c00e000cd
:103a9000060032006022b8006033b8000000520017
:103aa00081805a0002015b0083815b004f06780031
:103ab0004f05be004f04be000000060000000000dd
:103ac0002800fa00889fbe008a9fbe008c9fbe001f
:103ad00007067800878669000c003b000304780025
:103ae0008704780008f0a10009f0a100840f5000bd
:103af000858f5800860f5900890f5c000300330042
:103b00000cf0a20001003a000cf0a100eefd07004d
:103b10006400e1005f003200780147006408e100c2
:103b2000610032006c014700748557003200be000e
:103b30001201be003a04be001a05be001e0390002a
:103b4000be0a90008503530006003d000004fd00fe
:103b50008104fd000205fd008305fd008703ea00e6
:103b6000050378000df8a30004003200600414007f
:103b7000e0841c0060051d00e0851d006022b80087
:103b80007d0320000d38e1008006eb000b003900ba
:103b90004433dd00f300b2008301730039003700c5
:103ba000848272000d027800e10664008b85d100ea
:103bb0000a85d3008984d3000884d3008703e900f1
:103bc000f7ff3b0008004000898048000a014900d7
:103bd0008b81490004003b0060001000e080180069
:103be00060011900e08119000358a30009003200a8
:103bf0008d82720084827200610260008301d100b4
:103c00000281d3008180d3000080d3000603e80046
:103c10001b0037000348a30017003a000600e0002d
:103c2000170034000603e9000d00a300000048005f
:103c30008180480002014900838149000348a300b4
:103c40000f003a000600e000090034000603e90016
:103c50000000400081804800020149008381490042
:103c600001003a000003eb000348a300f5ff320017
:103c70006022b80002003700848272006182660010
:103c800065fd070003f0a1000cf0a70003f0a00001
:103c9000a1fd3700640147006408e10002003a001a
:103ca0000df8a30099fd3a0032007800b2007800c8
:103cb0001201be0098fd3700889fbe008a9fbe009b
:103cc0008c9fbe000404be000605be00809fbe009f
:103cd000829fbe0030000700040678000800be0086
:103ce0000a01be002c000700840678004f03be00c6
:103cf0004f02be008d4f76007fb097001300330057
:103d0000f0ff2f008b8f6b0006003b000d06660056
:103d10000c00a7000a00370007f0a60010002000e2
:103d20000a003700880f5200898f5a008a0f5b0003
:103d30008b8f5b00030039001000200001003e0063
:103d40000000200007f0a7000000ea004f06be00b8
:103d50004f05be004f04be0000000600e482400094
:103d60001078a30007003200640240001178a3001d
:103d70003400be001401be00050032000330a7006d
:103d80000000060035007800b50078001501be007f
:103d90000330a0000000060005ff27000582610037
:103da000070032000428e100010032002400050071
:103db0000600070001003a00440005000408050061
:103dc00002000700f9ff3a00140005006f8261004d
:103dd00081027000850271008502720000000600f9
:103de0005002be00e40050005003be004439de0023
:103df000f700b200f37f20000301610009003200e8
:103e00000218e10016003a00850172008301730078
:103e1000838173000008200015003a004000200054
:103e200013003700850172008301730083817300e2
:103e300005003a0004a8be0006a8be00100020003d
:103e40000b0037000201e9000402420085824a00ab
:103e500006034b0087834b000748a300f9ff32009d
:103e60000740a00004a8be0006a8be002000200055
:103e7000800098009200980000000600881f7800db
:103e8000030478000300e00007003d00600010001c
:103e9000e080180060011900e081190002003b0079
:103ea00001f02d00030037000400070008f0a70010
:103eb00003f0a0004f04780000000600889fbe00b9
:103ec000008270000402710004827100240032003c
:103ed00036432000c50020008383cf000a0039004c
:103ee0000541b1008283cf00070039000541b100d0
:103ef0008183cf00040039000541b1008083cf00e9
:103f0000010039000541b10085c353006022b800ab
:103f1000120032000a003b008482720061026000dd
:103f20008301d1000281d3008180d3000080d300bf
:103f30000603e8008743e800f7ff3a000700370070
:103f4000000040008180480002014900838149004f
:103f50000603e9008743e900f9ff3a00aefc0700d9
:103f60004f04be0000000600889fbe0000047800d9
:103f70000203be00810478000802780089017800fd
:103f8000120020000600be002efb0700890f500023
:103f9000010032000004eb00080078004f04be006e
:103fa000000006006800fa00889fbe008a9fbe00dd
:103fb0008004780001047800820578000305780009
:103fc0008400780000f92f000f0040001bfb070061
:103fd000d98f9f00fb8f9f000000eb00a09f9f00e8
:103fe000e88f9f009a84fb000904fb008904ea0023
:103ff000cf4cde0050022000800f54000d00320034
:10400000e18f54000b003a00090178008a00780023
:104010007f889700df89970003000100f08f9f00e1
:104020000000e000950032002f9897000000e800a3
:10403000a09f9f000905450050022000800f5400fa
:10404000040032000800e000e6ff3a002f989700d5
:104050008b0037000000eb00809f9f00f0979f00cf
:10406000e0979f00d0979f00c0979f00b0979f0058
:1040700007003700611321000100500000004000dc
:10408000a1122100808040004f989700110070001d
:10409000c09f9f000a04780008057800ba447800a1
:1040a0008900fb00601321008df807000000e0008c
:1040b000f0ff3a00a1c2b30081cf54000e003a00d5
:1040c0008f8897000180e900808f9f0010007800a2
:1040d000b09f9f000000e00005003d000000ea00e6
:1040e000b09f9f004f9897000020a000c09f9f00a6
:1040f0000804e80010003700b09f9f008800780097
:104100000000eb0005003700f3ff2700830f50008d
:1041100002003200ea00b90000004100010478000a
:10412000880078003101fb000203b100e90f510063
:10413000f5ff3600b09f9f00e0c2b300984f10001b
:10414000020032000080eb0019003700a0c2b3006b
:10415000d84f100007003a008f8897000180e900cf
:10416000808f9f0010007800909f9f000804e80057
:10417000100037000000eb00909f9f00880078003f
:1041800005003700f3ff2700830f500002003200c4
:10419000ea00b900000041000104780088007800be
:1041a0003101fb000203b100e90f5100f5ff3600b9
:1041b000909f9f00984478008900fb002012210006
:1041c00047f807000000e000020032000804e800a1
:1041d000010037008044eb00a97f9f0080c6b30038
:1041e00080cf540006003a0098cf140010003a0027
:1041f00066405000a07f9f000804e8000c003700d4
:10420000c0c6b30080cf540009003a0098cf140014
:1042100007003a0067404000d84f100002003a0003
:104220006e4050000100370010c7b300a07f9f0010
:104230001801fb00c3fb2f008f81410001f92f0003
:104240008f80400020f92f000f004000150007006c
:104250000000e00009003a00c1fb2f008f80400001
:1042600020f92f000f0040009af907000000e0003d
:10427000020035000805e8005aff37000080eb0017
:104280004f05be004f04be000080fa00000006008b
:1042900003027800820178000101780041fb2100cf
:1042a00040ff3700889fbe008a1f78000004780016
:1042b000824478000305780070c6b30080cf5400b4
:1042c00021003c0000c0e90080cf5400e6003d0022
:1042d0007240500080cf5400530132000d003c006a
:1042e0006c40500080cf540085013c0000c0e900c4
:1042f00080cf5400dc003d0050c2b30080cf54009a
:104300007c0132007c40400080cf54007c013a00a8
:10431000d500370010c6b30080cf5400d200320061
:1043200004003c006940500080cf540074013a0002
:104330007300370030c6b30080cf5400180032003d
:104340000040e8000900370000c7b30080cf5400e8
:104350002701320008003c0000c0e90080cf540073
:10436000f000320066003c006540500080cf5400f1
:1043700063013a001000370050c7b30080cf5400eb
:104380005f0032006340400080cf54005c00320088
:104390006540500080cf540059013a002201370097
:1043a0001181e90082087800280890000005450086
:1043b000124d78005801370008689000c2c6b3005b
:1043c000824f500008003a0011017800640051004b
:1043d0008008780090009000100078004f89de007f
:1043e000820178001600370012c7b300824f5000d8
:1043f00003003a00110278006800520005003700ff
:10440000a2c6b300824f500008003a009102780023
:104410006880520080087800900090002001900091
:10442000b001900010007800050037001180e9000d
:104430008008780010007800cf80de006109b900a4
:10444000009cbe000294be00086a900085c6b300be
:10445000854f52000d00320025c6b300854f520033
:1044600004003a000000fb00cf80de006109b900c3
:104470000800370045c7b300854f520003003200e3
:10448000e6c24200854f520004003a00cf80de00b1
:104490006109b900009cbe000294be0018027800b9
:1044a0009802900028039000b8039000280890001c
:1044b000e00f5200e08f5a00e00f5b00e08f5b00de
:1044c00003003d0080004500d2c2b3000a0037005f
:1044d000b81090000118a3000300320080004500ce
:1044e000b2c2b300040037000108a3005900320033
:1044f0008000450002c2b3008248780053003700b4
:1045000008689000c2c6b300824f500009003a000c
:1045100011037800640053008008780010027800ce
:10452000900290006033b8000400be000601be0097
:104530001600370012c7b300824f500003003a0044
:10454000910278006880520005003700a2c6b300cf
:10455000824f500008003a001103780068005300b1
:10456000800878009000900020019000b001900039
:1045700010007800050037001180e90080087800fd
:10458000100078008000eb006011b800009cbe00b5
:104590000294be00086a900085c6b300854f5200a1
:1045a0000d00320025c6b300854f520004003a00ca
:1045b0000080fb008000eb006011b80008003700ad
:1045c00045c7b300854f520003003200e6c24200e7
:1045d000854f520004003a008000eb006011b800e3
:1045e000009cbe000294be00381090000038a3006a
:1045f0001800320018007800980090002801900000
:10460000b8019000e00f5000e08f5800e00f590013
:10461000e08f59000f00320080c7b30080cf5400f4
:104620000300320080c5b30080cf540009003a0077
:10463000280890008000450002c3b300824878003b
:104640000000e80080004500894878000000e8008c
:10465000200c980028089000000545007a04980076
:10466000894078006d00370008699000c0c4b3002d
:10467000804f510008003a00910378006880530091
:10468000800878009000900020019000b001900018
:104690001000780006003700110178006400510016
:1046a0008008780090009000100078001ffb070041
:1046b000009cbe000294be00b80090002808900044
:1046c0000100e00003003d0080004500d2c2b300bd
:1046d0000a003700b81090000118a3000300320050
:1046e00080004500b2c2b300040037000108a300f7
:1046f000050032008000450002c2b3008248780005
:104700000000e800200c98002808900000054500f3
:104710007a0498008900fb000800780084000700f4
:104720007f00370008699000c3c6b3001180e9001c
:10473000834f5100220032000a003c00e4c15100c6
:10474000834f51002500320083c1e800834f5100a0
:1047500013003200e8c15100834f51001e003a009f
:104760000a00370043c7b300834f51001b003200db
:10477000e6c14100834f510018003200e9c15100e9
:10478000834f510014003a0005003700800878007c
:104790001000780028649000084878006000370016
:1047a000800878001000780018129000cfa2de0078
:1047b000612bb9000498be000690be005800370077
:1047c000800878001000780018119000cf91de006a
:1047d0000288be00520037001180e900800878008e
:1047e0001000780018149000080878004c0037007a
:1047f0001180e9008008780010007800cf80de008a
:104800006109b900009cbe000294be002808900017
:10481000000545007a04980081c7b30008007800bd
:10482000eff607003e0037000869900050c6b3005d
:10483000804f51001b003a001102780064005200c2
:10484000800878009000900010007800000c98001c
:10485000110c9800881190000300e00007003d0053
:104860008081eb000001eb00ddf907000001be00d4
:104870008808900081005100080037000001eb001b
:10488000d7f907000081700003003200080990008a
:10489000820050000100370088109000410c980001
:1048a0001f0037001180e9008008780010057800ab
:1048b0007a049800881490000900e00004003d008c
:1048c0000a00780085f407008004780007003700ac
:1048d000090178008000eb000a00780076f60700f6
:1048e0000000e000010032008a045000490c9800ea
:1048f0000b00370028089000000545000500370030
:1049000028089000000545000904e00001003a0075
:1049100059c2b300094d78000000e800200c98004f
:104920000000eb004f0578004f04be0000000600b9
:104930002f04b000889fbe008a9fbe008c9fbe00df
:104940008e1f78000007780081f79f001e04780012
:104950009e0490002e059000be0590000e10900061
:104960000000e00002003d006000200000179800f9
:104970008e00780020fb2f000f0040006ef607002d
:10498000e20f50000a003a0030002000400f98006b
:10499000b1c9b3000ff0970081404000c00a210068
:1049a000e1cf50000d003e00800a21000b003700cf
:1049b0000000e0000f00340030002000400f98009d
:1049c000b1c9b3000ff1970081404100400b2100b5
:1049d000e1cf500001003e00000b2100fe009000de
:1049e000b0487800b0687800104078009040980097
:1049f000f70037000000e00005003a0022fb2f001e
:104a00000f014100001978008001eb00eb00370036
:104a10006022b8006033b8000800be000a01be0082
:104a20008af907000000e00001003d000bf0a20041
:104a3000705927009f9897000088b900026a2800e3
:104a400013002000e5f90700640650009c9f9f00ba
:104a500015003b0063061600c0ff2f00000666002d
:104a60008c01ea00939f9f008d0b21000800be007f
:104a70000a01be00090037000c08a300050032003f
:104a80001d0278009d0290002d039000bd03900050
:104a900075fa07000c86d100e88646000c00e0009d
:104aa000f5ff3c001a0037000c00e0001a0032004d
:104ab000c0ff2f00000666009c9f9f008d0b210009
:104ac0006000b8000200200003ff23000900370047
:104ad0000c08a300050032001d0278009d02900022
:104ae0002d039000bd0390005ffa07000c86d100f3
:104af000e88646000c00e000f5ff3c000002be0026
:104b00000203be000800be000a01be0059f90700fa
:104b10000004be000205be008e10900060c6b30007
:104b20000ff29700804f5200040032006000200016
:104b300062c4b300824f520002003a009f9a97006d
:104b40006a80420081004000f1b79f0001037800b5
:104b5000f30f53000200340037012000f7b79f0025
:104b600000c3b300c0779f0056fb2f000f03430024
:104b70000e007800a0b79f00060778003d003700c0
:104b80000800be000a01be0007fa07000006be00ca
:104b90007fb1970068015100f2b79f004240a90021
:104ba0000c0034002cfa07000002be000203be0015
:104bb0000800be000a01be00a1fa07006022b8008a
:104bc00046782d007719240027fa07000004be005c
:104bd0000205be00e80047008e0020000802be006b
:104be0000a03be00b4b79f00c5b79f00d6b79f00a9
:104bf000e7b79f000c01be00010478000c003700ed
:104c0000a400200005002000c0fd2f000f00400080
:104c100037f507006fa89700ffa897000fb197001e
:104c20009fb1970005c3b300056441000001be00b9
:104c3000e00f5100e08f5900030034000e07e90037
:104c4000e10f4700eeff3a00880078003fb497007c
:104c5000cfb497005fb59700efb59700020037001b
:104c600000c3b300806078000e07e900fcff3b0042
:104c7000688740007fb397000600e000070034001b
:104c80006022b8006033b8000800be000a01be0010
:104c9000f3f807000000e000b9ff3c000e037800c5
:104ca0002fb7970051fb2f008f8040000103530066
:104cb0009f9b970067804300909f9f0002003700f2
:104cc0000603e9000000e900010178008200780095
:104cd00003c3b300b1cf1100f9ff3200909f9f00d2
:104ce0008e11900061c6b3000ff29700814f520001
:104cf0000300320061c4b300814f520002003a0049
:104d00000000e8000a0037001000200051c6b30080
:104d10008ff2970081cf52000500320005407800e5
:104d200050c4b2000080fb000000e9004f00de002c
:104d300083014000868f5100010034008601780015
:104d40000300e0001d00350000c3b300868f510052
:104d500006003d00030241006940400041c3b3002a
:104d600094cf100001003c00694050008300e9002e
:104d70008100410001003700840178000302e9004e
:104d800001037800a142780080cf5200faff320080
:104d900091c3b300814f500001003a00054be80079
:104da0000400e00005003d000201e9008301e80085
:104db0001f9b97000603e800969f9f008ff39700c4
:104dc0008700fb001f9a97000e007800060007007e
:104dd0004f0778004f06be004f05be004f04be00cf
:104de0002f04b10000000600f0874700889fbe0036
:104df0008a9fbe008c9fbe008e1f78000004780042
:104e0000814478000205be00040678000b00e00033
:104e100002003c001b0020004a15210060c6b300c0
:104e200080cf54000e00320060c4b30080cf540025
:104e30000b00320070c6b30080cf54000300320074
:104e400070c4b30080cf540085003a00e40f4600e0
:104e50008300350008109000800f560080003d0050
:104e60000c06e80060c6b30080cf5400100032008a
:104e700060c4b30080cf54000d00320038109000a1
:104e80000038a30004003a0008109000808f5500fd
:104e900001003d000b149800081090000c00500019
:104ea0000014980002003b000000eb000014980082
:104eb000c8089000780090000c00e00028003c003a
:104ec0000100400002c3b300024878008100e800fe
:104ed000410c9800081090000000e00003003c0026
:104ee000381090000038a3000600320078009000cf
:104ef00001004000e2c2b300024878008100e800ef
:104f0000410c9800081090008c00ea00810f5000be
:104f100001003d000006ea008c00ea00510c9800f8
:104f2000000646000c1498008b0f56000100340058
:104f30000b0678006c0c9800f80090004808900070
:104f4000008040000c0178008a007800dcf2070045
:104f5000081090000c0650007c0c9800940037005c
:104f60008c8f550019003d00010040000b017800b6
:104f70008a007800d2f207004808900000804500bf
:104f8000400c98008b0556005b0c98008810900030
:104f90000100e00003003c00b81090000138a300bd
:104fa00007003200f800900000804000e1c2b3002a
:104fb00001487800680890000000e800600c980044
:104fc00008109000700c9800790037000100400034
:104fd0000c0178008a007800b9f2070048089000b8
:104fe00000004600400c98008c8555008810900009
:104ff0000100e00003003c00b81090000138a3005d
:1050000006003200f800900080804000e2c2b30049
:10501000824878000000e800400c980008109000da
:10502000808f55000100340080057800f800900062
:1050300048089000008040008c0045000b0178007b
:105040009ff20700480890000b004000400c9800b9
:10505000081090008b0550005b0c9800540037003e
:1050600048089000f8009000808040009a4878003e
:105070000000e800400c9800881090000100e0005b
:1050800003003c00b81090000138a3000600320075
:10509000f800900080804000e2c2b30082487800af
:1050a0000000e800400c9800081090000000e000ac
:1050b000100034008b05e900808f5500010034009a
:1050c00080057800f80090004808900000804000bb
:1050d0008a00e8000b01780079f207004808900088
:1050e0000b004000400c9800081090008b05500009
:1050f0005b0c9800f8009000480890000080400089
:10510000095878000007e8000c00e00004003500b2
:10511000b1c2b300014878008e0478000400370063
:10512000d1c2b300014878008e0478000c06ea0072
:105130007d8557008006eb0009003700a2002000a3
:105140008c0078007280570058f307007fb09700fa
:105150008fb89700016d7800000678008d06e80092
:105160000c00e000f5ff3c000d00e00009003a00f3
:105170008e04780000c3b300805c7800050037001f
:105180008d06e900fc8057000d80400001c3b3008c
:1051900090dc40000d00e000f9ff3c00f8009000ba
:1051a000480890000080400080845400690c9800fa
:1051b0003810900074006000f00f50000e003a00ac
:1051c000c80890002808900000804000d80890008f
:1051d00001004000e808900001004000f80890003d
:1051e00001004000a8109000810f500002003d0017
:1051f00000805000300c98004f0778004f06be002a
:105200004f05be004f04be000f01b10000000600b4
:020000040000fa
:10521000000000000000000000000000005f00002f
:10522000000000000007000000070000001400005c
:105230007f1400007f140000242a00007f2a000051
:1052400012230000130800006462000036490000c9
:10525000552200005000000005030000000000007f
:10526000001c00002241000000000000412200005c
:105270001c000000140800003e0800001408000094
:10528000083e000008080000005000003000000048
:105290000008000008080000080800000060000086
:1052a0006000000000200000100800000402000060
:1052b0003e510000494500003e000000427f0000d2
:1052c00040000000426100005149000046210000fa
:1052d000414500004b31000018140000127f00000f
:1052e0001027000045450000453900003c4a0000f9
:1052f0004949000030010000710900000503000069
:1053000036490000494900003606000049490000be
:10531000291e0000003600003600000000000000da
:105320005636000000000000081400002241000072
:1053300000140000141400001414000000410000c8
:1053400022140000080200000151000009060000bc
:1053500032490000794100003e7e0000111100003a
:10536000117e00007f49000049490000363e0000e0
:1053700041410000412200007f4100004122000025
:105380001c7f000049490000494100007f090000de
:1053900009090000013e000041490000497a00006f
:1053a0007f080000080800007f000000417f000027
:1053b0004100000020400000413f0000017f00004c
:1053c00008140000224100007f400000404000001f
:1053d000407f0000020c0000027f00007f040000fc
:1053e000081000007f3e000041410000413e0000e7
:1053f0007f09000009090000063e0000415100003d
:10540000215e00007f0900001929000046460000c7
:105410004949000049310000010100007f010000fe
:10542000013f000040400000403f00001f200000fe
:10543000402000001f3f000040380000403f0000b7
:1054400063140000081400006307000008700000e7
:1054500008070000615100004945000043000000ba
:105460007f4100004100000002040000081000001d
:1054700020000000414100007f0000000402000005
:1054800001020000044000004040000040400000d5
:10549000000100000204000000200000545400003d
:1054a000547800007f480000444400003838000071
:1054b00044440000442000003844000044480000f8
:1054c0007f3800005454000054180000087e00008b
:1054d00009010000020c000052520000523e000080
:1054e0007f0800000404000078000000447d0000f4
:1054f0004000000020400000443d0000007f00000c
:105500001028000044000000004100007f4000001f
:10551000007c000004180000047800007c080000f3
:1055200004040000783800004444000044380000bf
:105530007c1400001414000008080000141400007b
:10554000187c00007c0800000404000008480000eb
:105550005454000054200000043f00004440000068
:10556000203c000040400000207c00001c20000087
:10557000402000001c3c000040300000403c000087
:105580004428000010280000440c00005050000087
:10559000503c000044640000544c000044000000f3
:1055a0000836000041000000000000007f000000fd
:1055b0000000000041360000080000001008000054
:1055c00008100000087800004641000046780000fe
:1055d000c69c0000b0e10000ffe10000b09c0000ac
:1055e000c6000000311c0000064300007f4300009d
:1055f000061c000031000000f01800000c0600003e
:10560000030600000c180000f00000000f18000056
:105610003c7e0000ff7e00003c1800000f000000f0
:10562000500000003c00000020200000202000006e
:105630004169000072200000436f00006e640000aa
:1056400069740000696f00006e6900006e670000f9
:1056500020690000732000006e6f000077200000ba
:105660006f6e00000a0d00000020000020200000e6
:1056700020460000757200006e6100006365000046
:1056800020690000732000006e6f0000772000008a
:105690006f6e00000a0d00000020000020200000b6
